:1000000080312528053008007E1480310B1F092817
:100010000A2823282E00991C0E280F281A288F1C26
:10002000122813281A2820006B088A006A080A0080
:1000300080312328191C1D281E2823280F1C212845
:100040002228232813287E100900803127286830B1
:1000500084000030850007308731ED278031A030E3
:1000600084000030850040308731ED2780317E10DC
:1000700020008231822A20002C0886008701403F20
:10008000AE00413FAF002E0884002F08850012000B
:10009000253A031D4C284D280D292C088600870180
:1000A0000130810741310318810A2100DE01DF019F
:1000B00000302000EC00FF30E800FF30E9002C08A1
:1000C00086008701403FB300413FB40033088400FD
:1000D000340885001200643A03196F2870287A28C2
:1000E00033088400340885001200693A031D79281A
:1000F0007A2803292D0886008701010884008501DC
:1001000002308107003FB500013FB6003308013ED1
:10011000AE000030343DAF002C08860087012E0869
:10012000C03F2F08C13F2030B900B61B98289A283D
:1001300001309B280030B2000130B9023908A03EDE
:10014000860087010A30A0000030A1003608A30015
:100150003508A20082313022803120002108A7001A
:100160002008A60087315227803120002608303E23
:1001700081000A30A0000030A1003608A300350835
:10018000A20081312821803120002108B6002008FA
:10019000B500350836040319CE28CF28D4283908ED
:1001A000031DD328D4289C2839080319D828D92816
:1001B000FC2832080319DD28DE28FC280130B902AA
:1001C0003908A03E860087012D308100FC283908BF
:1001D000A03E860087010108AE00AF012E08A000F6
:1001E0002F08A1002B08A3002A08A2008131842136
:1001F000803101302000B90720303906031D012964
:100200000229E728272920002C08860087010130D1
:10021000810741310318810A27292C0886008701AC
:10022000403FAE00413FAF002E0884002F088500FC
:100230000008B000B1013008A0003108A1002B086F
:10024000A3002A08A20081318421803103290800FB
:100250002000A501A11F2D292E293529A009A109BA
:10026000A00A0319A10A0130A500A31F38293929C2
:100270004029A209A309A20A0319A30A0130A5066D
:10028000A601A70120082104031947294829752937
:100290000130A40052290130A035A10D890B4C2951
:1002A0000130A407A11F552956294B290130A63535
:1002B000A70D890B572921082302031D6129200856
:1002C0002202031C642965296A292008A202210848
:1002D000A33B26140130A136A00C890B6B290130F9
:1002E000A402031D742975295629250803197929A3
:1002F0007A297F29A609A709A60A0319A70A2708A8
:10030000A1002608A00008002000220823040319E9
:100310008A298B29912922082304031D90299129D8
:10032000962920088731FF278131DC2922088600A1
:10033000870149311600010403199F29A029BE290C
:100340002208860087014931403FA400413FA500B3
:100350002208860087014231403FA600413FA700A6
:100360002708803AA8002508803A2802031DBA29E8
:10037000240826020318BD29BE29DC2920002208F2
:100380008600870142312208840023088500003F4F
:10039000A400013FA500403F24078400413F253DC4
:1003A0008500200880002208860087014231013044
:1003B000810741310318810A08008731F92781310B
:1003C000003A0319E429E529142AF2298F31C927B3
:1003D00081312F2A8F31CE2781312F2A8F31D82793
:1003E00081312F2A21004F08F900C03086000030EB
:1003F00087004631413F8A00403F0A008131FA00C0
:10040000FB017B08003A0319062AEE297A08013A13
:100410000319EE29033A0319E629013A0319EA29D7
:10042000073A0319EE29EE2921005D1058088700CC
:1004300057088600D70A0319D80A01088F31BF2749
:10044000813101302100D9020030DA3B59085A04C9
:10045000031D2B2A2C2A2E2A06302F2A03300800AF
:100460002000A501A31F352A362A3D2AA209A30987
:10047000A20A0319A30A0130A500A11F402A412A9C
:10048000462AA009A109A00A0319A10A20082104EB
:1004900003194B2A4C2A732A0130A400562A013032
:1004A000A035A10D890B502A0130A407A11F592A9C
:1004B0005A2A4F2A21082302031D602A20082202FB
:1004C000031C632A642A682A2008A2022108A33B8D
:1004D0000130A136A00C890B692A0130A402031D4A
:1004E000722A732A5A2A25080319772A782A7D2A1C
:1004F000A209A309A20A0319A30A2308A10022083A
:10050000A00008008731642782318B170B17153044
:100510002000D4004B30D300BE30890B8D2AD30B82
:100520008D2AD40B8D2A000083319723823103302A
:100530002000D4000830D3007730890B9D2AD30BDC
:100540009D2AD40B9D2A8F31FB27823100308631C2
:100550009026823120002108E7002008E60055306F
:10056000C2009730C3008530C4006708C600660823
:10057000C50085319A2582312000B601B60A553072
:10058000B70001308531F4258231972A8031252842
:100590002000A2000130A30021005D19D02AD12A39
:1005A0000B2B200022082100D600DD105D155D1008
:1005B0000E30DB00F430D4000130D500DD15903072
:1005C000C0000F30C100CC019030C2000F30C3001A
:1005D000CD019030C4000F30C500CE019030C60070
:1005E0000F30C700CF010230C8000030C900D00171
:1005F000BB302000A0000F30A1008731F3278231EB
:100600008F31A42782318731902782318F31B027F3
:1006100082312000A30120002308080020009A0155
:10062000990196019701980107309500FF309100DC
:10063000FF309200FF309300FF309400FF303E0007
:10064000D900E730CE00FF30C3000730E400FF30B0
:10065000B800DA01E501C401B901CF01E601BA0130
:10066000C501D001DB01FF30BB00FF30C600FF3009
:10067000D100FF30DC000730E700FF30BC00FF3066
:10068000C700FF30D200FF30DD000730E800133034
:100690003D00C50014303E00A3001530A400143006
:1006A0003D00C60008002100570886005808870052
:1006B0008F319B278331810001302100D707003023
:1006C000D83D0130D9020030DA3B59085A040319E9
:1006D0006A2B6B2B702B8F31B72783310530962B0C
:1006E000DD157A2B8F31E7278331962B8F31E22767
:1006F0008331962B4C08F90041088A0040080A0013
:100700008331FA00FB017B08003A0319882B762B12
:100710007A08013A0319762B033A0319722B013A2E
:100720000319722B073A0319762B762B0800003039
:100730008731832783312000EE016E080F3920387E
:10074000EE008631A626833134302000B300F1302C
:10075000890BA82BB30BA82B0032283084314224FC
:1007600083316A30890BB22B00320C308431422441
:1007700083316A30890BBA2B00320630843142242F
:10078000833115302000B300C630890BC52BB30B65
:10079000C52B00008F31FB2783318731DF27833161
:1007A00008002000A500200821040319D82BD92B0C
:1007B000F22B2535C03E86000030873D25350030C0
:1007C000873D2008C03F2108C13FCC30A300003046
:1007D000A4002508230786000030243D8700220856
:1007E0008100092C2535C03E86000030873D253527
:1007F0000030873D9030C03F0030C13FCC30A30077
:100800000030A4002508230786000030243D87001F
:1008100081010800F500700871040319102C112CD7
:100820002A2C7535C03E86000030873D7535003076
:10083000873D7008C03F7108C13FCC30F3000030E5
:10084000F4007508730786000030743D8700720855
:100850008100412C7535C03E86000030873D7535DE
:100860000030873D9030C03F0030C13FCC30F300B6
:100870000030F4007508730786000030743D87006F
:10088000810108002000B2008F31F127843120005F
:100890006E10F0303205B1006E080F393104EE00F1
:1008A0008631A626843134302000B100F130890B26
:1008B000572CB10B572C003220003208B100043005
:1008C000B135890B602C6E080F393104EE0086318A
:1008D000A626843134302000B100F130890B6E2C13
:1008E000B10B6E2C003208002000B2008F31F127CE
:1008F000843120006E14F0303205B1006E080F39DB
:100900003104EE008631A6268431E4300032003214
:10091000890B862C0032003220003208B1000430EE
:10092000B135890B902C6E080F393104EE008631F9
:10093000A6268431E43000320032890B9B2C003231
:10094000003208002000AD0020002D088231C822AE
:100950008431003A0319AD2CAE2CA42C20002A08B7
:10096000A000A1012C08A3002B08A2008631792643
:10097000843100302000A600A7000030A800A900A4
:1009800087319D2784318F31F627843186311026B7
:100990008431013A0319CD2CCE2CC62C080021003D
:1009A000DD15DF2C8F31D3278431FB2C8F319E272F
:1009B00084310330FB2C8F31D8278431FB2C4C0839
:1009C000F90041088A0040080A008431FA00FB015E
:1009D0007B08003A0319ED2CDB2C7A08013A031945
:1009E000DB2C033A0319D22C013A0319D22C073A13
:1009F0000319D62CDB2C08002000B4000F2D33087F
:100A00007F3EB5001D2D3308BF3EB5001D2D3308B8
:100A1000933EB5001D2D3308D33EB5001D2D34087F
:100A2000013A0319FF2C033A0319032D013A031964
:100A3000072D073A03190B2D1D2D3508843142244B
:100A40008431A0300032890B222D080021005D1076
:100A50000230DC00332D8F31D32785314E2D8F317D
:100A6000D82785314E2D4E08F900C0308600003061
:100A700087004431413F8A00403F0A008531FA0037
:100A8000FB017B08003A0319462D2F2D7A08023A04
:100A900003192B2D013A03192B2D2F2D08008F310F
:100AA000A127853121005D1C562D572D622D8731E0
:100AB000F9278531003A03195E2D5F2D622D0F3025
:100AC0002100DB0021005B08FC00FD01FC35FD0D71
:100AD00077307C07840005307D3D80388500013FFC
:100AE0008A00003F0A0085312100DB000800C43481
:100AF0000F34C6340734D7340734DD34013453346B
:100B00000334E6340734CF340434C9340F34CE34DC
:100B10000F34D3340F34D8340F34DD340F34E2348F
:100B20000F34E7340F34EC340F34263405342534D5
:100B30006434003445302000C7004208C800C901B1
:100B4000CA01CB01D101D2014830BA000030BB004C
:100B50004408BD004308BC004730BE008531B825BD
:100B60008531200042084A0786008701810108007C
:100B700020003D08C1003C08C000C92D3B08AB0067
:100B80003A08AA004030AC003E08AD0080313B205E
:100B90008531200040088400410885001200031DB3
:100BA000D22DD32DBE2DBA01BB0108002000A0001C
:100BB0000130A1002100DD18DE2DDF2DF12DDD1427
:100BC0002000A10120080319E62DE72DEB2D0130AF
:100BD0002100DB00EE2D02302100DB008F31AD273C
:100BE00085312000210808002000B8003608B30035
:100BF00038088431FC2485312000370886008701BD
:100C0000010884317424853101302000B70737088A
:100C1000860087010108031D0E2E0F2EFC2D0800F3
:100C200001302000A0002100DD18172E182E282EDC
:100C30005D11FF30D6008F31A42786318F31AA276E
:100C400086318F31A727863121005C082000A00063
:100C50002000200808007908023E8600870101086C
:100C6000F0000030F100790886008701403FF20073
:100C7000413FF3008731742786310030F600F700DA
:100C8000F8018731A9278631023008007908023E31
:100C9000860087010108F0000030F1007908860025
:100CA0008701403FF200413FF300873174278631CE
:100CB0000030F600F700F8018731A92786310230AD
:100CC000080022008E018F01900191019201930191
:100CD0008D0121009E019B019C01940195019601CB
:100CE00097019A0199019801D4309300C8309D0072
:100CF00008002100DD1D7D2E7E2E8F2E2000210874
:100D00002100D800200020082100D700200023085F
:100D10002100DA00200022082100D900DD1108009E
:100D20002000A200220821009E0093171313131421
:100D30000000210013189D2E9E2E992E0D082000D4
:100D4000A10021000C082000A000080020006E086F
:100D5000AE006E156E08AF006E116E08B0002E303A
:100D6000AA000330AB000030AC003F308431A22435
:100D7000863108007908F000F1010130F2000030FE
:100D8000F3008731742786310030F600F700F80150
:100D90008731A9278631043008007908F000F10175
:100DA0000230F2000030F3008731742786310030C2
:100DB000F600F700F8018731A927863102300800D4
:100DC0007908F000F1010130F2000030F3008731C2
:100DD000742786310030F600F700F8018731A92723
:100DE0008631023008007908F000F1010230F2008B
:100DF0000030F3008731742786310030F600F700A9
:100E0000F8018731A9278631043008007908F000FD
:100E1000F1010230F2000030F3008731742787318E
:100E20000030F600F700F8018731A927873102303A
:100E300008007908F000F1010130F2000030F30001
:100E40008731742787310030F600F700F8018731C9
:100E5000A9278731023008007908F000F10101303C
:100E6000F2000030F3008731742787310030F6003C
:100E7000F700F8018731A927873104300800790885
:100E8000F000F1010230F2000030F30087317427E6
:100E900087310030F600F700F8018731A927873144
:100EA000043008002000A71B562F572F582F632F00
:100EB0002609A8002709A900A80A0319A90A2808D1
:100EC000A6002908A70008008731CF27873187317E
:100ED000BD27873183310E2387318731B42787318E
:100EE00086316126873108002100DD1D782F792F9A
:100EF000822F7108D8007008D7007308DA007208D2
:100F0000D900DD1108002000AE002E30AA0001300B
:100F1000AB000030AC003F308431A22487310800A0
:100F20002300901A942F952F9C2F8F01083090004A
:100F300091014F308D009016080020002708A10075
:100F40002608A0002808A20002308331D12387316F
:100F500008007708F1007608F0007808F200003009
:100F600084310A2487310800603031008D008F0100
:100F70009101063093009201080023008F01083090
:100F8000900091014F308D009012080021005D14F7
:100F90000314560D8F31BF278731053008002F000D
:100FA00096019701980199019A019B01080021007F
:100FB0005D1456358F31BF2787310330080020007C
:100FC000EE156E08873183278731080021005D10F8
:100FD0008F31982787310430080064008001013187
:100FE000890BEE2F003420002108EB002008EA00D6
:100FF00008002300110E890C890C01390800080033
:101F20000130080023009114080023001115080057
:101F300023009115080023000C0808002E000F1440
:101F400008002E000F1008002E000F1008002300BC
:101F5000901208002E001910080023001114080028
:101F60002E001914080023009116111608002300F2
:101F700091121116080085314F258F310800F000AD
:101F8000700823008C0008002100DD10DC010E30F9
:101F900008008F3192278F31013008008F3192274E
:101FA0008F31023008008F3192278F3101300800C5
:101FB0008F3195278F31003008008F31B7278F314F
:101FC000053008008F31B3278F310A3008008F3178
:101FD000B3278F31093008002100DD10DC010E30FD
:101FE0000800A0300032890BF22F08000030853144
:101FF000D6258F3108000130843142248F3108000A
:020000040001F9
:08000000FF3FFF3FFF3FFF3F00
:0A000E00EC3FFF3F9F3FFF3FFF3F25
:00000001FF
